{"abi":[{"type":"constructor","inputs":[],"stateMutability":"nonpayable"},{"type":"function","name":"getBTCLatestPrice","inputs":[],"outputs":[{"name":"","type":"int256","internalType":"int256"}],"stateMutability":"view"},{"type":"function","name":"getETHLatestPrice","inputs":[],"outputs":[{"name":"","type":"int256","internalType":"int256"}],"stateMutability":"view"}],"bytecode":{"object":"0x6080604052348015600e575f5ffd5b50731b44f3514812d835eb1bdb0acb33d3fa3351ee435f5f6101000a81548173ffffffffffffffffffffffffffffffffffffffff021916908373ffffffffffffffffffffffffffffffffffffffff16021790555073694aa1769357215de4fac081bf1f309adc32530660015f6101000a81548173ffffffffffffffffffffffffffffffffffffffff021916908373ffffffffffffffffffffffffffffffffffffffff16021790555061032b806100c35f395ff3fe608060405234801561000f575f5ffd5b5060043610610034575f3560e01c80630f00fa111461003857806394e9925614610056575b5f5ffd5b610040610074565b60405161004d91906101c5565b60405180910390f35b61005e610110565b60405161006b91906101c5565b60405180910390f35b5f5f5f5f9054906101000a900473ffffffffffffffffffffffffffffffffffffffff1673ffffffffffffffffffffffffffffffffffffffff1663feaf968c6040518163ffffffff1660e01b815260040160a060405180830381865afa1580156100df573d5f5f3e3d5ffd5b505050506040513d601f19601f82011682018060405250810190610103919061027e565b5050509150508091505090565b5f5f60015f9054906101000a900473ffffffffffffffffffffffffffffffffffffffff1673ffffffffffffffffffffffffffffffffffffffff1663feaf968c6040518163ffffffff1660e01b815260040160a060405180830381865afa15801561017c573d5f5f3e3d5ffd5b505050506040513d601f19601f820116820180604052508101906101a0919061027e565b5050509150508091505090565b5f819050919050565b6101bf816101ad565b82525050565b5f6020820190506101d85f8301846101b6565b92915050565b5f5ffd5b5f69ffffffffffffffffffff82169050919050565b610200816101e2565b811461020a575f5ffd5b50565b5f8151905061021b816101f7565b92915050565b61022a816101ad565b8114610234575f5ffd5b50565b5f8151905061024581610221565b92915050565b5f819050919050565b61025d8161024b565b8114610267575f5ffd5b50565b5f8151905061027881610254565b92915050565b5f5f5f5f5f60a08688031215610297576102966101de565b5b5f6102a48882890161020d565b95505060206102b588828901610237565b94505060406102c68882890161026a565b93505060606102d78882890161026a565b92505060806102e88882890161020d565b915050929550929590935056fea26469706673582212209dfedf9a3dfc719c960a227f1394169621e6bdad38fe1f6546b32a9d5bd6623364736f6c634300081c0033","linkReferences":{}},"methodIdentifiers":{"getBTCLatestPrice()":"0f00fa11","getETHLatestPrice()":"94e99256"},"id":0}