{"abi":[{"type":"constructor","inputs":[],"stateMutability":"nonpayable"},{"type":"receive","stateMutability":"payable"},{"type":"function","name":"MIN_COLLATERAL_RATIO","inputs":[],"outputs":[{"name":"","type":"uint256","internalType":"uint256"}],"stateMutability":"view"},{"type":"function","name":"allowance","inputs":[{"name":"owner","type":"address","internalType":"address"},{"name":"spender","type":"address","internalType":"address"}],"outputs":[{"name":"","type":"uint256","internalType":"uint256"}],"stateMutability":"view"},{"type":"function","name":"approve","inputs":[{"name":"spender","type":"address","internalType":"address"},{"name":"value","type":"uint256","internalType":"uint256"}],"outputs":[{"name":"","type":"bool","internalType":"bool"}],"stateMutability":"nonpayable"},{"type":"function","name":"balanceOf","inputs":[{"name":"account","type":"address","internalType":"address"}],"outputs":[{"name":"","type":"uint256","internalType":"uint256"}],"stateMutability":"view"},{"type":"function","name":"burnAndWithdrawAll","inputs":[],"outputs":[],"stateMutability":"nonpayable"},{"type":"function","name":"decimals","inputs":[],"outputs":[{"name":"","type":"uint8","internalType":"uint8"}],"stateMutability":"view"},{"type":"function","name":"depositAndMint","inputs":[{"name":"amountToMint","type":"uint256","internalType":"uint256"}],"outputs":[],"stateMutability":"payable"},{"type":"function","name":"ethCollateral","inputs":[{"name":"","type":"address","internalType":"address"}],"outputs":[{"name":"","type":"uint256","internalType":"uint256"}],"stateMutability":"view"},{"type":"function","name":"ethUsdPriceFeed","inputs":[],"outputs":[{"name":"","type":"address","internalType":"contract AggregatorV3Interface"}],"stateMutability":"view"},{"type":"function","name":"getLatestPrice","inputs":[],"outputs":[{"name":"ethUsdPrice","type":"uint256","internalType":"uint256"}],"stateMutability":"view"},{"type":"function","name":"name","inputs":[],"outputs":[{"name":"","type":"string","internalType":"string"}],"stateMutability":"view"},{"type":"function","name":"symbol","inputs":[],"outputs":[{"name":"","type":"string","internalType":"string"}],"stateMutability":"view"},{"type":"function","name":"totalSupply","inputs":[],"outputs":[{"name":"","type":"uint256","internalType":"uint256"}],"stateMutability":"view"},{"type":"function","name":"transfer","inputs":[{"name":"to","type":"address","internalType":"address"},{"name":"value","type":"uint256","internalType":"uint256"}],"outputs":[{"name":"","type":"bool","internalType":"bool"}],"stateMutability":"nonpayable"},{"type":"function","name":"transferFrom","inputs":[{"name":"from","type":"address","internalType":"address"},{"name":"to","type":"address","internalType":"address"},{"name":"value","type":"uint256","internalType":"uint256"}],"outputs":[{"name":"","type":"bool","internalType":"bool"}],"stateMutability":"nonpayable"},{"type":"event","name":"Approval","inputs":[{"name":"owner","type":"address","indexed":true,"internalType":"address"},{"name":"spender","type":"address","indexed":true,"internalType":"address"},{"name":"value","type":"uint256","indexed":false,"internalType":"uint256"}],"anonymous":false},{"type":"event","name":"Transfer","inputs":[{"name":"from","type":"address","indexed":true,"internalType":"address"},{"name":"to","type":"address","indexed":true,"internalType":"address"},{"name":"value","type":"uint256","indexed":false,"internalType":"uint256"}],"anonymous":false},{"type":"error","name":"ERC20InsufficientAllowance","inputs":[{"name":"spender","type":"address","internalType":"address"},{"name":"allowance","type":"uint256","internalType":"uint256"},{"name":"needed","type":"uint256","internalType":"uint256"}]},{"type":"error","name":"ERC20InsufficientBalance","inputs":[{"name":"sender","type":"address","internalType":"address"},{"name":"balance","type":"uint256","internalType":"uint256"},{"name":"needed","type":"uint256","internalType":"uint256"}]},{"type":"error","name":"ERC20InvalidApprover","inputs":[{"name":"approver","type":"address","internalType":"address"}]},{"type":"error","name":"ERC20InvalidReceiver","inputs":[{"name":"receiver","type":"address","internalType":"address"}]},{"type":"error","name":"ERC20InvalidSender","inputs":[{"name":"sender","type":"address","internalType":"address"}]},{"type":"error","name":"ERC20InvalidSpender","inputs":[{"name":"spender","type":"address","internalType":"address"}]}],"bytecode":{"object":"0x60a060405234801561000f575f5ffd5b506040518060400160405280601281526020017f4672757465726f2055534420537461626c6500000000000000000000000000008152506040518060400160405280600881526020017f4672756974555344000000000000000000000000000000000000000000000000815250816003908161008b9190610328565b50806004908161009b9190610328565b50505073694aa1769357215de4fac081bf1f309adc32530673ffffffffffffffffffffffffffffffffffffffff1660808173ffffffffffffffffffffffffffffffffffffffff16815250506103f7565b5f81519050919050565b7f4e487b71000000000000000000000000000000000000000000000000000000005f52604160045260245ffd5b7f4e487b71000000000000000000000000000000000000000000000000000000005f52602260045260245ffd5b5f600282049050600182168061016657607f821691505b60208210810361017957610178610122565b5b50919050565b5f819050815f5260205f209050919050565b5f6020601f8301049050919050565b5f82821b905092915050565b5f600883026101db7fffffffffffffffffffffffffffffffffffffffffffffffffffffffffffffffff826101a0565b6101e586836101a0565b95508019841693508086168417925050509392505050565b5f819050919050565b5f819050919050565b5f61022961022461021f846101fd565b610206565b6101fd565b9050919050565b5f819050919050565b6102428361020f565b61025661024e82610230565b8484546101ac565b825550505050565b5f5f905090565b61026d61025e565b610278818484610239565b505050565b5b8181101561029b576102905f82610265565b60018101905061027e565b5050565b601f8211156102e0576102b18161017f565b6102ba84610191565b810160208510156102c9578190505b6102dd6102d585610191565b83018261027d565b50505b505050565b5f82821c905092915050565b5f6103005f19846008026102e5565b1980831691505092915050565b5f61031883836102f1565b9150826002028217905092915050565b610331826100eb565b67ffffffffffffffff81111561034a576103496100f5565b5b610354825461014f565b61035f82828561029f565b5f60209050601f831160018114610390575f841561037e578287015190505b610388858261030d565b8655506103ef565b601f19841661039e8661017f565b5f5b828110156103c5578489015182556001820191506020850194506020810190506103a0565b868310156103e257848901516103de601f8916826102f1565b8355505b6001600288020188555050505b505050505050565b608051611a996104165f395f81816104be01526106f10152611a995ff3fe6080604052600436106100eb575f3560e01c806345fd04651161008957806395d89b411161005857806395d89b41146102fe578063a9059cbb14610328578063b41ae67914610364578063dd62ed3e1461037a576100f2565b806345fd04651461025257806370a082311461026e5780637a9fffb7146102aa5780638e15f473146102d4576100f2565b80631c8c16fb116100c55780631c8c16fb1461018657806323b872dd146101c2578063313ce567146101fe57806342f6fb2914610228576100f2565b806306fdde03146100f6578063095ea7b31461012057806318160ddd1461015c576100f2565b366100f257005b5f5ffd5b348015610101575f5ffd5b5061010a6103b6565b60405161011791906111a7565b60405180910390f35b34801561012b575f5ffd5b5061014660048036038101906101419190611258565b610446565b60405161015391906112b0565b60405180910390f35b348015610167575f5ffd5b50610170610468565b60405161017d91906112d8565b60405180910390f35b348015610191575f5ffd5b506101ac60048036038101906101a791906112f1565b610471565b6040516101b991906112d8565b60405180910390f35b3480156101cd575f5ffd5b506101e860048036038101906101e3919061131c565b610486565b6040516101f591906112b0565b60405180910390f35b348015610209575f5ffd5b506102126104b4565b60405161021f9190611387565b60405180910390f35b348015610233575f5ffd5b5061023c6104bc565b60405161024991906113fb565b60405180910390f35b61026c60048036038101906102679190611414565b6104e0565b005b348015610279575f5ffd5b50610294600480360381019061028f91906112f1565b6106a1565b6040516102a191906112d8565b60405180910390f35b3480156102b5575f5ffd5b506102be6106e6565b6040516102cb91906112d8565b60405180910390f35b3480156102df575f5ffd5b506102e86106ec565b6040516102f591906112d8565b60405180910390f35b348015610309575f5ffd5b5061031261081c565b60405161031f91906111a7565b60405180910390f35b348015610333575f5ffd5b5061034e60048036038101906103499190611258565b6108ac565b60405161035b91906112b0565b60405180910390f35b34801561036f575f5ffd5b506103786108ce565b005b348015610385575f5ffd5b506103a0600480360381019061039b919061143f565b610a33565b6040516103ad91906112d8565b60405180910390f35b6060600380546103c5906114aa565b80601f01602080910402602001604051908101604052809291908181526020018280546103f1906114aa565b801561043c5780601f106104135761010080835404028352916020019161043c565b820191905f5260205f20905b81548152906001019060200180831161041f57829003601f168201915b5050505050905090565b5f5f610450610ab5565b905061045d818585610abc565b600191505092915050565b5f600254905090565b6005602052805f5260405f205f915090505481565b5f5f610490610ab5565b905061049d858285610ace565b6104a8858585610b61565b60019150509392505050565b5f6012905090565b7f000000000000000000000000000000000000000000000000000000000000000081565b5f8111610522576040517f08c379a00000000000000000000000000000000000000000000000000000000081526004016105199061154a565b60405180910390fd5b5f3411610564576040517f08c379a000000000000000000000000000000000000000000000000000000000815260040161055b906115b2565b60405180910390fd5b3460055f3373ffffffffffffffffffffffffffffffffffffffff1673ffffffffffffffffffffffffffffffffffffffff1681526020019081526020015f205f8282546105b091906115fd565b925050819055505f6105c06106ec565b90505f6305f5e1008260055f3373ffffffffffffffffffffffffffffffffffffffff1673ffffffffffffffffffffffffffffffffffffffff1681526020019081526020015f20546106119190611630565b61061b919061169e565b90505f83610628336106a1565b61063291906115fd565b9050613a9881612710846106469190611630565b610650919061169e565b1015610691576040517f08c379a000000000000000000000000000000000000000000000000000000000815260040161068890611718565b60405180910390fd5b61069b3385610c51565b50505050565b5f5f5f8373ffffffffffffffffffffffffffffffffffffffff1673ffffffffffffffffffffffffffffffffffffffff1681526020019081526020015f20549050919050565b613a9881565b5f5f5f7f000000000000000000000000000000000000000000000000000000000000000073ffffffffffffffffffffffffffffffffffffffff1663feaf968c6040518163ffffffff1660e01b815260040160a060405180830381865afa158015610758573d5f5f3e3d5ffd5b505050506040513d601f19601f8201168201806040525081019061077c91906117bc565b509350509250505f82136107c5576040517f08c379a00000000000000000000000000000000000000000000000000000000081526004016107bc9061187d565b60405180910390fd5b610e1081426107d4919061189b565b10610814576040517f08c379a000000000000000000000000000000000000000000000000000000000815260040161080b90611918565b60405180910390fd5b819250505090565b60606004805461082b906114aa565b80601f0160208091040260200160405190810160405280929190818152602001828054610857906114aa565b80156108a25780601f10610879576101008083540402835291602001916108a2565b820191905f5260205f20905b81548152906001019060200180831161088557829003601f168201915b5050505050905090565b5f5f6108b6610ab5565b90506108c3818585610b61565b600191505092915050565b5f6108d8336106a1565b90505f811161091c576040517f08c379a000000000000000000000000000000000000000000000000000000000815260040161091390611980565b60405180910390fd5b5f60055f3373ffffffffffffffffffffffffffffffffffffffff1673ffffffffffffffffffffffffffffffffffffffff1681526020019081526020015f205490505f811161099f576040517f08c379a0000000000000000000000000000000000000000000000000000000008152600401610996906119e8565b60405180910390fd5b5f60055f3373ffffffffffffffffffffffffffffffffffffffff1673ffffffffffffffffffffffffffffffffffffffff1681526020019081526020015f20819055506109eb3383610cd0565b3373ffffffffffffffffffffffffffffffffffffffff166108fc8290811502906040515f60405180830381858888f19350505050158015610a2e573d5f5f3e3d5ffd5b505050565b5f60015f8473ffffffffffffffffffffffffffffffffffffffff1673ffffffffffffffffffffffffffffffffffffffff1681526020019081526020015f205f8373ffffffffffffffffffffffffffffffffffffffff1673ffffffffffffffffffffffffffffffffffffffff1681526020019081526020015f2054905092915050565b5f33905090565b610ac98383836001610d4f565b505050565b5f610ad98484610a33565b90507fffffffffffffffffffffffffffffffffffffffffffffffffffffffffffffffff811015610b5b5781811015610b4c578281836040517ffb8f41b2000000000000000000000000000000000000000000000000000000008152600401610b4393929190611a15565b60405180910390fd5b610b5a84848484035f610d4f565b5b50505050565b5f73ffffffffffffffffffffffffffffffffffffffff168373ffffffffffffffffffffffffffffffffffffffff1603610bd1575f6040517f96c6fd1e000000000000000000000000000000000000000000000000000000008152600401610bc89190611a4a565b60405180910390fd5b5f73ffffffffffffffffffffffffffffffffffffffff168273ffffffffffffffffffffffffffffffffffffffff1603610c41575f6040517fec442f05000000000000000000000000000000000000000000000000000000008152600401610c389190611a4a565b60405180910390fd5b610c4c838383610f1e565b505050565b5f73ffffffffffffffffffffffffffffffffffffffff168273ffffffffffffffffffffffffffffffffffffffff1603610cc1575f6040517fec442f05000000000000000000000000000000000000000000000000000000008152600401610cb89190611a4a565b60405180910390fd5b610ccc5f8383610f1e565b5050565b5f73ffffffffffffffffffffffffffffffffffffffff168273ffffffffffffffffffffffffffffffffffffffff1603610d40575f6040517f96c6fd1e000000000000000000000000000000000000000000000000000000008152600401610d379190611a4a565b60405180910390fd5b610d4b825f83610f1e565b5050565b5f73ffffffffffffffffffffffffffffffffffffffff168473ffffffffffffffffffffffffffffffffffffffff1603610dbf575f6040517fe602df05000000000000000000000000000000000000000000000000000000008152600401610db69190611a4a565b60405180910390fd5b5f73ffffffffffffffffffffffffffffffffffffffff168373ffffffffffffffffffffffffffffffffffffffff1603610e2f575f6040517f94280d62000000000000000000000000000000000000000000000000000000008152600401610e269190611a4a565b60405180910390fd5b8160015f8673ffffffffffffffffffffffffffffffffffffffff1673ffffffffffffffffffffffffffffffffffffffff1681526020019081526020015f205f8573ffffffffffffffffffffffffffffffffffffffff1673ffffffffffffffffffffffffffffffffffffffff1681526020019081526020015f20819055508015610f18578273ffffffffffffffffffffffffffffffffffffffff168473ffffffffffffffffffffffffffffffffffffffff167f8c5be1e5ebec7d5bd14f71427d1e84f3dd0314c0f7b2291e5b200ac8c7c3b92584604051610f0f91906112d8565b60405180910390a35b50505050565b5f73ffffffffffffffffffffffffffffffffffffffff168373ffffffffffffffffffffffffffffffffffffffff1603610f6e578060025f828254610f6291906115fd565b9250508190555061103c565b5f5f5f8573ffffffffffffffffffffffffffffffffffffffff1673ffffffffffffffffffffffffffffffffffffffff1681526020019081526020015f2054905081811015610ff7578381836040517fe450d38c000000000000000000000000000000000000000000000000000000008152600401610fee93929190611a15565b60405180910390fd5b8181035f5f8673ffffffffffffffffffffffffffffffffffffffff1673ffffffffffffffffffffffffffffffffffffffff1681526020019081526020015f2081905550505b5f73ffffffffffffffffffffffffffffffffffffffff168273ffffffffffffffffffffffffffffffffffffffff1603611083578060025f82825403925050819055506110cd565b805f5f8473ffffffffffffffffffffffffffffffffffffffff1673ffffffffffffffffffffffffffffffffffffffff1681526020019081526020015f205f82825401925050819055505b8173ffffffffffffffffffffffffffffffffffffffff168373ffffffffffffffffffffffffffffffffffffffff167fddf252ad1be2c89b69c2b068fc378daa952ba7f163c4a11628f55a4df523b3ef8360405161112a91906112d8565b60405180910390a3505050565b5f81519050919050565b5f82825260208201905092915050565b8281835e5f83830152505050565b5f601f19601f8301169050919050565b5f61117982611137565b6111838185611141565b9350611193818560208601611151565b61119c8161115f565b840191505092915050565b5f6020820190508181035f8301526111bf818461116f565b905092915050565b5f5ffd5b5f73ffffffffffffffffffffffffffffffffffffffff82169050919050565b5f6111f4826111cb565b9050919050565b611204816111ea565b811461120e575f5ffd5b50565b5f8135905061121f816111fb565b92915050565b5f819050919050565b61123781611225565b8114611241575f5ffd5b50565b5f813590506112528161122e565b92915050565b5f5f6040838503121561126e5761126d6111c7565b5b5f61127b85828601611211565b925050602061128c85828601611244565b9150509250929050565b5f8115159050919050565b6112aa81611296565b82525050565b5f6020820190506112c35f8301846112a1565b92915050565b6112d281611225565b82525050565b5f6020820190506112eb5f8301846112c9565b92915050565b5f60208284031215611306576113056111c7565b5b5f61131384828501611211565b91505092915050565b5f5f5f60608486031215611333576113326111c7565b5b5f61134086828701611211565b935050602061135186828701611211565b925050604061136286828701611244565b9150509250925092565b5f60ff82169050919050565b6113818161136c565b82525050565b5f60208201905061139a5f830184611378565b92915050565b5f819050919050565b5f6113c36113be6113b9846111cb565b6113a0565b6111cb565b9050919050565b5f6113d4826113a9565b9050919050565b5f6113e5826113ca565b9050919050565b6113f5816113db565b82525050565b5f60208201905061140e5f8301846113ec565b92915050565b5f60208284031215611429576114286111c7565b5b5f61143684828501611244565b91505092915050565b5f5f60408385031215611455576114546111c7565b5b5f61146285828601611211565b925050602061147385828601611211565b9150509250929050565b7f4e487b71000000000000000000000000000000000000000000000000000000005f52602260045260245ffd5b5f60028204905060018216806114c157607f821691505b6020821081036114d4576114d361147d565b5b50919050565b7f4d696e7420616d6f756e74206d7573742062652067726561746572207468616e5f8201527f207a65726f000000000000000000000000000000000000000000000000000000602082015250565b5f611534602583611141565b915061153f826114da565b604082019050919050565b5f6020820190508181035f83015261156181611528565b9050919050565b7f4d757374206465706f73697420455448000000000000000000000000000000005f82015250565b5f61159c601083611141565b91506115a782611568565b602082019050919050565b5f6020820190508181035f8301526115c981611590565b9050919050565b7f4e487b71000000000000000000000000000000000000000000000000000000005f52601160045260245ffd5b5f61160782611225565b915061161283611225565b925082820190508082111561162a576116296115d0565b5b92915050565b5f61163a82611225565b915061164583611225565b925082820261165381611225565b9150828204841483151761166a576116696115d0565b5b5092915050565b7f4e487b71000000000000000000000000000000000000000000000000000000005f52601260045260245ffd5b5f6116a882611225565b91506116b383611225565b9250826116c3576116c2611671565b5b828204905092915050565b7f496e73756666696369656e7420636f6c6c61746572616c0000000000000000005f82015250565b5f611702601783611141565b915061170d826116ce565b602082019050919050565b5f6020820190508181035f83015261172f816116f6565b9050919050565b5f69ffffffffffffffffffff82169050919050565b61175481611736565b811461175e575f5ffd5b50565b5f8151905061176f8161174b565b92915050565b5f819050919050565b61178781611775565b8114611791575f5ffd5b50565b5f815190506117a28161177e565b92915050565b5f815190506117b68161122e565b92915050565b5f5f5f5f5f60a086880312156117d5576117d46111c7565b5b5f6117e288828901611761565b95505060206117f388828901611794565b9450506040611804888289016117a8565b9350506060611815888289016117a8565b925050608061182688828901611761565b9150509295509295909350565b7f496e76616c6964206f7261636c652070726963650000000000000000000000005f82015250565b5f611867601483611141565b915061187282611833565b602082019050919050565b5f6020820190508181035f8301526118948161185b565b9050919050565b5f6118a582611225565b91506118b083611225565b92508282039050818111156118c8576118c76115d0565b5b92915050565b7f5374616c65206f7261636c6520646174610000000000000000000000000000005f82015250565b5f611902601183611141565b915061190d826118ce565b602082019050919050565b5f6020820190508181035f83015261192f816118f6565b9050919050565b7f4e6f7468696e6720746f206275726e00000000000000000000000000000000005f82015250565b5f61196a600f83611141565b915061197582611936565b602082019050919050565b5f6020820190508181035f8301526119978161195e565b9050919050565b7f4e6f20636f6c6c61746572616c000000000000000000000000000000000000005f82015250565b5f6119d2600d83611141565b91506119dd8261199e565b602082019050919050565b5f6020820190508181035f8301526119ff816119c6565b9050919050565b611a0f816111ea565b82525050565b5f606082019050611a285f830186611a06565b611a3560208301856112c9565b611a4260408301846112c9565b949350505050565b5f602082019050611a5d5f830184611a06565b9291505056fea26469706673582212207466016a3f428532ff4aabe266019e161fbf4a15f0dac1c5a0a0060eed5f396a64736f6c634300081c0033","linkReferences":{}},"methodIdentifiers":{"MIN_COLLATERAL_RATIO()":"7a9fffb7","allowance(address,address)":"dd62ed3e","approve(address,uint256)":"095ea7b3","balanceOf(address)":"70a08231","burnAndWithdrawAll()":"b41ae679","decimals()":"313ce567","depositAndMint(uint256)":"45fd0465","ethCollateral(address)":"1c8c16fb","ethUsdPriceFeed()":"42f6fb29","getLatestPrice()":"8e15f473","name()":"06fdde03","symbol()":"95d89b41","totalSupply()":"18160ddd","transfer(address,uint256)":"a9059cbb","transferFrom(address,address,uint256)":"23b872dd"},"id":1}